:0300000002004CAF
:200008000000E2FBEAF2802C0000E0FBEAF08024E6B50202EBF62200E2B50202EBF22200DE
:20002800E0B50202EBF02230F6E0A88220F5D3EAC6F582228B822230F6E6A88220F5D980EE
:01004800CFE8
:0900A500750810750927020049D5
:030049000200AE04
:2000AE00D2918508828509831200C6C2918508828509831200C680E8AE82AF837C007D00C9
:0F00CE00C3EC9EED9F50070CBC00F50D80F22295
:06007B00E478FFF6D8FD59
:200059007900E94400601B7A009000E1780175A000E493F2A308B8000205A0D9F4DAF2756C
:02007900A0FFE6
:200081007800E84400600A790175A000E4F309D8FC7800E84400600C7900900001E4F0A37D
:0400A100D8FCD9FAB4
:0D004C007581091200DDE5826003020049A4
:0400DD007582002206
:00000001FF
